{
  "address": "0xaff8255FDa2c5357591D8e573920A088333C243B",
  "abi": [
    {
      "anonymous": false,
      "inputs": [
        {
          "indexed": true,
          "internalType": "address",
          "name": "account",
          "type": "address"
        },
        {
          "indexed": false,
          "internalType": "uint256",
          "name": "amount",
          "type": "uint256"
        }
      ],
      "name": "Deposit",
      "type": "event"
    },
    {
      "anonymous": false,
      "inputs": [
        {
          "indexed": true,
          "internalType": "address",
          "name": "from",
          "type": "address"
        },
        {
          "indexed": true,
          "internalType": "address",
          "name": "to",
          "type": "address"
        },
        {
          "indexed": false,
          "internalType": "uint256",
          "name": "amount",
          "type": "uint256"
        }
      ],
      "name": "Transfer",
      "type": "event"
    },
    {
      "anonymous": false,
      "inputs": [
        {
          "indexed": true,
          "internalType": "address",
          "name": "account",
          "type": "address"
        },
        {
          "indexed": false,
          "internalType": "uint256",
          "name": "amount",
          "type": "uint256"
        }
      ],
      "name": "Withdrawal",
      "type": "event"
    },
    {
      "inputs": [],
      "name": "VERSION",
      "outputs": [
        {
          "internalType": "uint256",
          "name": "",
          "type": "uint256"
        }
      ],
      "stateMutability": "view",
      "type": "function"
    },
    {
      "inputs": [],
      "name": "balance",
      "outputs": [
        {
          "internalType": "uint256",
          "name": "",
          "type": "uint256"
        }
      ],
      "stateMutability": "view",
      "type": "function"
    },
    {
      "inputs": [
        {
          "internalType": "address",
          "name": "",
          "type": "address"
        }
      ],
      "name": "balances",
      "outputs": [
        {
          "internalType": "uint256",
          "name": "",
          "type": "uint256"
        }
      ],
      "stateMutability": "view",
      "type": "function"
    },
    {
      "inputs": [],
      "name": "deposit",
      "outputs": [],
      "stateMutability": "payable",
      "type": "function"
    },
    {
      "inputs": [
        {
          "internalType": "address",
          "name": "account",
          "type": "address"
        }
      ],
      "name": "getDepositReceipts",
      "outputs": [
        {
          "components": [
            {
              "internalType": "uint256",
              "name": "amount",
              "type": "uint256"
            },
            {
              "internalType": "uint256",
              "name": "timestamp",
              "type": "uint256"
            }
          ],
          "internalType": "struct Bank.DepositReceipt[]",
          "name": "",
          "type": "tuple[]"
        }
      ],
      "stateMutability": "view",
      "type": "function"
    },
    {
      "inputs": [
        {
          "internalType": "address",
          "name": "_address",
          "type": "address"
        }
      ],
      "name": "getUserBalance",
      "outputs": [
        {
          "internalType": "uint256",
          "name": "",
          "type": "uint256"
        }
      ],
      "stateMutability": "view",
      "type": "function"
    },
    {
      "inputs": [],
      "name": "initialize",
      "outputs": [],
      "stateMutability": "nonpayable",
      "type": "function"
    },
    {
      "inputs": [],
      "name": "initialized",
      "outputs": [
        {
          "internalType": "bool",
          "name": "",
          "type": "bool"
        }
      ],
      "stateMutability": "view",
      "type": "function"
    },
    {
      "inputs": [],
      "name": "owner",
      "outputs": [
        {
          "internalType": "address",
          "name": "",
          "type": "address"
        }
      ],
      "stateMutability": "view",
      "type": "function"
    },
    {
      "inputs": [
        {
          "internalType": "address",
          "name": "recipient",
          "type": "address"
        },
        {
          "internalType": "uint256",
          "name": "amount",
          "type": "uint256"
        }
      ],
      "name": "transfer",
      "outputs": [],
      "stateMutability": "nonpayable",
      "type": "function"
    },
    {
      "inputs": [
        {
          "internalType": "address payable",
          "name": "newOwner",
          "type": "address"
        }
      ],
      "name": "transferOwnership",
      "outputs": [],
      "stateMutability": "nonpayable",
      "type": "function"
    },
    {
      "inputs": [
        {
          "internalType": "uint256",
          "name": "amount",
          "type": "uint256"
        }
      ],
      "name": "withdraw",
      "outputs": [],
      "stateMutability": "nonpayable",
      "type": "function"
    }
  ],
  "transactionHash": "0x721e8bc9aa711d2be2ba95eec02f4917cabbee9379c18550f50f3f8847d6a235",
  "args": [],
  "numDeployments": 2,
  "solcInputHash": "7cb95d7c257db8beb5866438d0ce0fde",
  "bytecode": "0x608060405234801561001057600080fd5b506109d2806100206000396000f3fe6080604052600436106100a75760003560e01c80638da5cb5b116100645780638da5cb5b146101a1578063a9059cbb146101d9578063b69ef8a8146101f9578063d0e30db01461021b578063f2fde38b14610223578063ffa1ad741461024357600080fd5b8063158ef93e146100ac57806327e235e3146100e25780632e1a7d4d1461011d578063477348921461013f5780636348ef0e1461015f5780638129fc1c1461018c575b600080fd5b3480156100b857600080fd5b506000546100cd90600160a01b900460ff1681565b60405190151581526020015b60405180910390f35b3480156100ee57600080fd5b5061010f6100fd3660046108a2565b60016020526000908152604090205481565b6040519081526020016100d9565b34801561012957600080fd5b5061013d6101383660046108c6565b610258565b005b34801561014b57600080fd5b5061010f61015a3660046108a2565b61039b565b34801561016b57600080fd5b5061017f61017a3660046108a2565b610420565b6040516100d991906108df565b34801561019857600080fd5b5061013d6104a9565b3480156101ad57600080fd5b506000546101c1906001600160a01b031681565b6040516001600160a01b0390911681526020016100d9565b3480156101e557600080fd5b5061013d6101f436600461092e565b610517565b34801561020557600080fd5b503360009081526001602052604090205461010f565b61013d6106a0565b34801561022f57600080fd5b5061013d61023e3660046108a2565b6107a0565b34801561024f57600080fd5b5061010f600281565b60025460ff16156102a05760405162461bcd60e51b815260206004820152600d60248201526c4e6f207265656e7472616e637960981b60448201526064015b60405180910390fd5b6002805460ff1916600190811790915533600090815260209190915260409020548111156103075760405162461bcd60e51b8152602060048201526014602482015273496e73756666696369656e742062616c616e636560601b6044820152606401610297565b3360009081526001602052604081208054839290610326908490610970565b9091555050604051339082156108fc029083906000818181858888f19350505050158015610358573d6000803e3d6000fd5b5060405181815233907f7fcf532c15f0a6db0bd6d0e038bea71d30d808c7d98cb3bf7268a95bf5081b659060200160405180910390a2506002805460ff19169055565b600080546001600160a01b031633146104045760405162461bcd60e51b815260206004820152602560248201527f4f6e6c79206f776e65722063616e20706572666f726d2074686973206f70657260448201526430ba34b7b760d91b6064820152608401610297565b506001600160a01b031660009081526001602052604090205490565b6001600160a01b0381166000908152600360209081526040808320805482518185028101850190935280835260609492939192909184015b8282101561049e57838290600052602060002090600202016040518060400160405290816000820154815260200160018201548152505081526020019060010190610458565b505050509050919050565b600054600160a01b900460ff16156104f45760405162461bcd60e51b815260206004820152600e60248201526d4f6e6c7920696e6974206f6e636560901b6044820152606401610297565b6000805460ff60a01b1933166001600160a81b031990911617600160a01b179055565b6001600160a01b03821661056d5760405162461bcd60e51b815260206004820152601a60248201527f496e76616c696420726563697069656e7420616464726573732e0000000000006044820152606401610297565b336000908152600160205260409020548111156105c35760405162461bcd60e51b8152602060048201526014602482015273496e73756666696369656e742062616c616e636560601b6044820152606401610297565b33600090815260016020526040812080548392906105e2908490610970565b90915550506001600160a01b0382166000908152600160205260408120805483929061060f908490610989565b90915550506001600160a01b03821660008181526003602090815260408083208151808301835286815242818501908152825460018181018555938752949095209051600290940201928355925191909201555133907fddf252ad1be2c89b69c2b068fc378daa952ba7f163c4a11628f55a4df523b3ef906106949085815260200190565b60405180910390a35050565b600034116107005760405162461bcd60e51b815260206004820152602760248201527f4465706f736974206d6f6e6579206d7573742062652067726561746572207468604482015266616e207a65726f60c81b6064820152608401610297565b336000908152600160205260408120805434929061071f908490610989565b9091555050336000818152600360209081526040808320815180830183523480825242828601908152835460018082018655948852968690209251600290970290920195865590519490910193909355519182527fe1fffcc4923d04b559f4d29a8bfc6cda04eb5b0d3c460751c2402c5c5cc9109c910160405180910390a2565b6001600160a01b0381166107f65760405162461bcd60e51b815260206004820152601a60248201527f496e76616c6964206e6577206f776e657220616464726573732e0000000000006044820152606401610297565b6000546001600160a01b031633146108685760405162461bcd60e51b815260206004820152602f60248201527f4f6e6c792074686520636f6e7472616374206f776e65722063616e207472616e60448201526e39b332b91037bbb732b939b434b81760891b6064820152608401610297565b600080546001600160a01b0319166001600160a01b0392909216919091179055565b6001600160a01b038116811461089f57600080fd5b50565b6000602082840312156108b457600080fd5b81356108bf8161088a565b9392505050565b6000602082840312156108d857600080fd5b5035919050565b602080825282518282018190526000919060409081850190868401855b82811015610921578151805185528601518685015292840192908501906001016108fc565b5091979650505050505050565b6000806040838503121561094157600080fd5b823561094c8161088a565b946020939093013593505050565b634e487b7160e01b600052601160045260246000fd5b818103818111156109835761098361095a565b92915050565b808201808211156109835761098361095a56fea264697066735822122091303125a4dedd829a4d85db777e651d51a5c2852f7136a57d7cdd99f9a0303564736f6c63430008130033",
  "devdoc": {
    "kind": "dev",
    "methods": {},
    "version": 1
  },
  "userdoc": {
    "kind": "user",
    "methods": {},
    "version": 1
  },
  "storageLayout": {
    "storage": [
      {
        "astId": 6,
        "contract": "contracts/Bank.sol:Bank",
        "label": "owner",
        "offset": 0,
        "slot": "0",
        "type": "t_address"
      },
      {
        "astId": 8,
        "contract": "contracts/Bank.sol:Bank",
        "label": "initialized",
        "offset": 20,
        "slot": "0",
        "type": "t_bool"
      },
      {
        "astId": 12,
        "contract": "contracts/Bank.sol:Bank",
        "label": "balances",
        "offset": 0,
        "slot": "1",
        "type": "t_mapping(t_address,t_uint256)"
      },
      {
        "astId": 19,
        "contract": "contracts/Bank.sol:Bank",
        "label": "locked",
        "offset": 0,
        "slot": "2",
        "type": "t_bool"
      },
      {
        "astId": 25,
        "contract": "contracts/Bank.sol:Bank",
        "label": "depositReceipts",
        "offset": 0,
        "slot": "3",
        "type": "t_mapping(t_address,t_array(t_struct(DepositReceipt)17_storage)dyn_storage)"
      }
    ],
    "types": {
      "t_address": {
        "encoding": "inplace",
        "label": "address",
        "numberOfBytes": "20"
      },
      "t_array(t_struct(DepositReceipt)17_storage)dyn_storage": {
        "base": "t_struct(DepositReceipt)17_storage",
        "encoding": "dynamic_array",
        "label": "struct Bank.DepositReceipt[]",
        "numberOfBytes": "32"
      },
      "t_bool": {
        "encoding": "inplace",
        "label": "bool",
        "numberOfBytes": "1"
      },
      "t_mapping(t_address,t_array(t_struct(DepositReceipt)17_storage)dyn_storage)": {
        "encoding": "mapping",
        "key": "t_address",
        "label": "mapping(address => struct Bank.DepositReceipt[])",
        "numberOfBytes": "32",
        "value": "t_array(t_struct(DepositReceipt)17_storage)dyn_storage"
      },
      "t_mapping(t_address,t_uint256)": {
        "encoding": "mapping",
        "key": "t_address",
        "label": "mapping(address => uint256)",
        "numberOfBytes": "32",
        "value": "t_uint256"
      },
      "t_struct(DepositReceipt)17_storage": {
        "encoding": "inplace",
        "label": "struct Bank.DepositReceipt",
        "members": [
          {
            "astId": 14,
            "contract": "contracts/Bank.sol:Bank",
            "label": "amount",
            "offset": 0,
            "slot": "0",
            "type": "t_uint256"
          },
          {
            "astId": 16,
            "contract": "contracts/Bank.sol:Bank",
            "label": "timestamp",
            "offset": 0,
            "slot": "1",
            "type": "t_uint256"
          }
        ],
        "numberOfBytes": "64"
      },
      "t_uint256": {
        "encoding": "inplace",
        "label": "uint256",
        "numberOfBytes": "32"
      }
    }
  }
}